{
  "contractName": "Broker",
  "abi": [
    {
      "anonymous": false,
      "inputs": [
        {
          "indexed": true,
          "internalType": "bytes32",
          "name": "slot",
          "type": "bytes32"
        },
        {
          "indexed": false,
          "internalType": "uint256",
          "name": "amountOut",
          "type": "uint256"
        },
        {
          "indexed": false,
          "internalType": "uint256",
          "name": "deadline",
          "type": "uint256"
        }
      ],
      "name": "Fill",
      "type": "event"
    },
    {
      "anonymous": false,
      "inputs": [
        {
          "indexed": true,
          "internalType": "bytes32",
          "name": "slot",
          "type": "bytes32"
        }
      ],
      "name": "GC",
      "type": "event"
    },
    {
      "anonymous": false,
      "inputs": [
        {
          "indexed": true,
          "internalType": "address",
          "name": "sender",
          "type": "address"
        },
        {
          "indexed": true,
          "internalType": "address",
          "name": "srcToken",
          "type": "address"
        },
        {
          "indexed": true,
          "internalType": "address",
          "name": "dstToken",
          "type": "address"
        },
        {
          "indexed": false,
          "internalType": "address",
          "name": "dstReceiver",
          "type": "address"
        },
        {
          "indexed": false,
          "internalType": "uint256",
          "name": "amount",
          "type": "uint256"
        },
        {
          "indexed": false,
          "internalType": "uint256",
          "name": "spentAmount",
          "type": "uint256"
        },
        {
          "indexed": false,
          "internalType": "uint256",
          "name": "returnAmount",
          "type": "uint256"
        },
        {
          "indexed": false,
          "internalType": "uint256",
          "name": "minReturnAmount",
          "type": "uint256"
        },
        {
          "indexed": false,
          "internalType": "address",
          "name": "referrer",
          "type": "address"
        }
      ],
      "name": "Swapped",
      "type": "event"
    },
    {
      "inputs": [],
      "name": "ORDER_TYPEHASH",
      "outputs": [
        {
          "internalType": "bytes32",
          "name": "",
          "type": "bytes32"
        }
      ],
      "stateMutability": "view",
      "type": "function"
    },
    {
      "inputs": [
        {
          "internalType": "bytes32",
          "name": "digest",
          "type": "bytes32"
        },
        {
          "internalType": "uint256",
          "name": "deadline",
          "type": "uint256"
        }
      ],
      "name": "cancel",
      "outputs": [],
      "stateMutability": "nonpayable",
      "type": "function"
    },
    {
      "inputs": [
        {
          "components": [
            {
              "internalType": "address",
              "name": "tokenIn",
              "type": "address"
            },
            {
              "internalType": "address",
              "name": "tokenOut",
              "type": "address"
            },
            {
              "internalType": "uint256",
              "name": "amountIn",
              "type": "uint256"
            },
            {
              "internalType": "uint256",
              "name": "amountOutMin",
              "type": "uint256"
            },
            {
              "internalType": "uint256",
              "name": "deadline",
              "type": "uint256"
            },
            {
              "internalType": "uint8",
              "name": "v",
              "type": "uint8"
            },
            {
              "internalType": "bytes32",
              "name": "r",
              "type": "bytes32"
            },
            {
              "internalType": "bytes32",
              "name": "s",
              "type": "bytes32"
            }
          ],
          "internalType": "struct SignedOrder",
          "name": "order",
          "type": "tuple"
        },
        {
          "components": [
            {
              "internalType": "uint256",
              "name": "amount",
              "type": "uint256"
            },
            {
              "internalType": "address[][]",
              "name": "steps",
              "type": "address[][]"
            }
          ],
          "internalType": "struct Route[]",
          "name": "routes",
          "type": "tuple[]"
        },
        {
          "internalType": "address",
          "name": "referrer",
          "type": "address"
        },
        {
          "internalType": "bytes32",
          "name": "expiredSlot",
          "type": "bytes32"
        }
      ],
      "name": "fill",
      "outputs": [
        {
          "internalType": "uint256",
          "name": "profit",
          "type": "uint256"
        }
      ],
      "stateMutability": "nonpayable",
      "type": "function"
    },
    {
      "inputs": [
        {
          "components": [
            {
              "internalType": "address",
              "name": "tokenIn",
              "type": "address"
            },
            {
              "internalType": "address",
              "name": "tokenOut",
              "type": "address"
            },
            {
              "internalType": "uint256",
              "name": "amountIn",
              "type": "uint256"
            },
            {
              "internalType": "uint256",
              "name": "amountOutMin",
              "type": "uint256"
            },
            {
              "internalType": "uint256",
              "name": "deadline",
              "type": "uint256"
            },
            {
              "internalType": "uint8",
              "name": "v",
              "type": "uint8"
            },
            {
              "internalType": "bytes32",
              "name": "r",
              "type": "bytes32"
            },
            {
              "internalType": "bytes32",
              "name": "s",
              "type": "bytes32"
            }
          ],
          "internalType": "struct SignedOrder",
          "name": "order",
          "type": "tuple"
        }
      ],
      "name": "parseOrder",
      "outputs": [
        {
          "internalType": "bytes32",
          "name": "digest",
          "type": "bytes32"
        },
        {
          "internalType": "address",
          "name": "maker",
          "type": "address"
        },
        {
          "internalType": "bytes32",
          "name": "slot",
          "type": "bytes32"
        },
        {
          "internalType": "uint256",
          "name": "status",
          "type": "uint256"
        }
      ],
      "stateMutability": "view",
      "type": "function"
    }
  ],
  "bytecode": "0x608060405234801561001057600080fd5b50611f93806100206000396000f3fe608060405234801561001057600080fd5b506004361061004c5760003560e01c8063069455a0146100515780636989f37014610066578063a6dea180146100b3578063f973a209146100d4575b600080fd5b61006461005f36600461191c565b6100fb565b005b610079610074366004611957565b610277565b6040805194855273ffffffffffffffffffffffffffffffffffffffff90931660208501529183015260608201526080015b60405180910390f35b6100c66100c13660046119a4565b6104e6565b6040519081526020016100aa565b6100c67f897e8e5f022b849935d76c2c78225ad4149b2b7530acf334a3f2dea62f753ee081565b8042111561016a576040517f08c379a000000000000000000000000000000000000000000000000000000000815260206004820152600f60248201527f42726f6b65723a2045585049524544000000000000000000000000000000000060448201526064015b60405180910390fd5b6040805160208082018590523360601b7fffffffffffffffffffffffffffffffffffffffff0000000000000000000000001682840152605480830185905283518084039091018152607490920183528151918101919091206000818152918290529190205415610236576040517f08c379a000000000000000000000000000000000000000000000000000000000815260206004820152601360248201527f42726f6b65723a20494e56414c494441544544000000000000000000000000006044820152606401610161565b60408051600081526020810184905282917f15b86d27c5739e716ed3673acd0f2bf915bb1b46104074336eeb2940b01de211910160405180910390a2505050565b600080808061039f61028c6020870187611a48565b61029c6040880160208901611a48565b876040013588606001358960800135604080517f897e8e5f022b849935d76c2c78225ad4149b2b7530acf334a3f2dea62f753ee060208083019190915273ffffffffffffffffffffffffffffffffffffffff97881682840152959096166060870152608086019390935260a085019190915260c0808501919091528151808503909101815260e0840182528051908301207f19010000000000000000000000000000000000000000000000000000000000006101008501527f979307752a88d4f0ad6e454fdfd30ae51ff1e7f90ccd30e6e0a8ff8c295e6bfc61010285015261012280850191909152815180850390910181526101429093019052815191012090565b93506103b160c0860160a08701611a74565b60ff16158015906103c5575060c085013515155b80156103d4575060e085013515155b156104df576001846103ec60c0880160a08901611a74565b6040805160008152602081018083529390935260ff9091169082015260c0870135606082015260e0870135608082015260a0016020604051602081039080840390855afa158015610441573d6000803e3d6000fd5b5050604080517fffffffffffffffffffffffffffffffffffffffffffffffffffffffffffffffe081015160208281018990527fffffffffffffffffffffffffffffffffffffffff000000000000000000000000606083901b168385015260808a013560548085019190915284518085039091018152607490930190935281519190920120909450905060008181526020819052604090205490925090505b9193509193565b60008560800135421115610556576040517f08c379a000000000000000000000000000000000000000000000000000000000815260206004820152600f60248201527f42726f6b65723a204558504952454400000000000000000000000000000000006044820152606401610161565b60408051608081018252600080825260208201819052918101829052606081019190915261059161058c36899003890189611b0d565b610e64565b73ffffffffffffffffffffffffffffffffffffffff168252606082015273eeeeeeeeeeeeeeeeeeeeeeeeeeeeeeeeeeeeeeee6105d36040890160208a01611a48565b73ffffffffffffffffffffffffffffffffffffffff1614610693576105fe6040880160208901611a48565b6040517f70a0823100000000000000000000000000000000000000000000000000000000815233600482015273ffffffffffffffffffffffffffffffffffffffff91909116906370a0823190602401602060405180830381865afa15801561066a573d6000803e3d6000fd5b505050506040513d601f19601f8201168201806040525081019061068e9190611bb2565b610696565b60005b602082015260005b8581101561086b5761075d6106b660208a018a611a48565b83518989858181106106ca576106ca611bcb565b90506020028101906106dc9190611bfa565b6106ea906020810190611c38565b60008181106106fb576106fb611bcb565b905060200281019061070d9190611c38565b600281811061071e5761071e611bcb565b90506020020160208101906107339190611a48565b8a8a8681811061074557610745611bcb565b90506020028101906107579190611bfa565b35610f03565b60005b87878381811061077257610772611bcb565b90506020028101906107849190611bfa565b610792906020810190611c38565b9050811015610831576108298888848181106107b0576107b0611bcb565b90506020028101906107c29190611bfa565b6107d0906020810190611c38565b838181106107e0576107e0611bcb565b90506020028101906107f29190611c38565b808060200260200160405190810160405280939291908181526020018383602002808284376000920191909152506110a292505050565b600101610760565b5086868281811061084457610844611bcb565b90506020028101906108569190611bfa565b6040830180519135909101905260010161069e565b5086604001358160400151146108dd576040517f08c379a000000000000000000000000000000000000000000000000000000000815260206004820152601f60248201527f42726f6b65723a207370656e74416d6f756e7420213d20616d6f756e74496e006044820152606401610161565b73eeeeeeeeeeeeeeeeeeeeeeeeeeeeeeeeeeeeeeee6109026040890160208a01611a48565b73ffffffffffffffffffffffffffffffffffffffff1603610afc576040517f70a0823100000000000000000000000000000000000000000000000000000000815230600482015273bb4cdb9cbd36b01bd1cbaebf2de08d9173bc095c906370a0823190602401602060405180830381865afa158015610985573d6000803e3d6000fd5b505050506040513d601f19601f820116820180604052508101906109a99190611bb2565b6020820181905260608801351115610a43576040517f08c379a000000000000000000000000000000000000000000000000000000000815260206004820152602260248201527f42726f6b65723a20494e53554646494349454e545f4f55545055545f414d4f5560448201527f4e540000000000000000000000000000000000000000000000000000000000006064820152608401610161565b60208101516040517f2e1a7d4d000000000000000000000000000000000000000000000000000000008152600481019190915273bb4cdb9cbd36b01bd1cbaebf2de08d9173bc095c90632e1a7d4d90602401600060405180830381600087803b158015610aaf57600080fd5b505af1158015610ac3573d6000803e3d6000fd5b50505050610ad98160000151886060013561158b565b60208101516060880135808203935014610af757610af7338361158b565b610cdd565b6000610b0e6040890160208a01611a48565b6040517f70a0823100000000000000000000000000000000000000000000000000000000815233600482015273ffffffffffffffffffffffffffffffffffffffff91909116906370a0823190602401602060405180830381865afa158015610b7a573d6000803e3d6000fd5b505050506040513d601f19601f82011682018060405250810190610b9e9190611bb2565b90508160200151811015610c0e576040517f08c379a000000000000000000000000000000000000000000000000000000000815260206004820152601e60248201527f42726f6b65723a204e454741544956455f4f55545055545f414d4f554e5400006044820152606401610161565b60208201805182039081905260608901351115610cad576040517f08c379a000000000000000000000000000000000000000000000000000000000815260206004820152602260248201527f42726f6b65723a20494e53554646494349454e545f4f55545055545f414d4f5560448201527f4e540000000000000000000000000000000000000000000000000000000000006064820152608401610161565b610cce610cc060408a0160208b01611a48565b8351339060608c0135610f03565b87606001358260200151039250505b610ced6040880160208901611a48565b73ffffffffffffffffffffffffffffffffffffffff16610d106020890189611a48565b8251604080850151602080870151835173ffffffffffffffffffffffffffffffffffffffff9586168152848f01359281019290925292810191909152606081810192909252908b0135608082015287821660a082015291169033907fbd99c6719f088aa0abd9e7b7a4a635d1f931601e9f304b538dc42be25d8c65c69060c00160405180910390a480606001517f15b86d27c5739e716ed3673acd0f2bf915bb1b46104074336eeb2940b01de21182602001518960800135604051610ddf929190918252602082015260400190565b60405180910390a28215801590610e03575060008381526020819052604090205415155b8015610e1c575060008381526020819052604090205442115b15610e5a576000838152602081905260408082208290555184917f099133214557a719a4ced8e616a6aef98745b96a7ef3593225c1b5975647db0091a25b5095945050505050565b600080610e708361169a565b600082815260208190526040902054919350915015610eeb576040517f08c379a000000000000000000000000000000000000000000000000000000000815260206004820152601360248201527f42726f6b65723a20494e56414c494441544544000000000000000000000000006044820152606401610161565b60809092015160008281526020819052604090205591565b6040805173ffffffffffffffffffffffffffffffffffffffff85811660248301528481166044830152606480830185905283518084039091018152608490920183526020820180517bffffffffffffffffffffffffffffffffffffffffffffffffffffffff167f23b872dd000000000000000000000000000000000000000000000000000000001790529151600092839290881691610fa29190611cd7565b6000604051808303816000865af19150503d8060008114610fdf576040519150601f19603f3d011682016040523d82523d6000602084013e610fe4565b606091505b509150915081801561100e57508051158061100e57508080602001905181019061100e9190611ce9565b61109a576040517f08c379a000000000000000000000000000000000000000000000000000000000815260206004820152603160248201527f5472616e7366657248656c7065723a3a7472616e7366657246726f6d3a20747260448201527f616e7366657246726f6d206661696c65640000000000000000000000000000006064820152608401610161565b505050505050565b60015b81516110b2826003611d3a565b1015611587576000808383815181106110cd576110cd611bcb565b6020026020010151848460026110e39190611d3a565b815181106110f3576110f3611bcb565b60200260200101519150915060008484600161110f9190611d3a565b8151811061111f5761111f611bcb565b602002602001015190506000806000808473ffffffffffffffffffffffffffffffffffffffff16630902f1ac6040518163ffffffff1660e01b8152600401606060405180830381865afa15801561117a573d6000803e3d6000fd5b505050506040513d601f19601f8201168201806040525081019061119e9190611d70565b506dffffffffffffffffffffffffffff1691506dffffffffffffffffffffffffffff16915060008673ffffffffffffffffffffffffffffffffffffffff168873ffffffffffffffffffffffffffffffffffffffff16106111fe5781611200565b825b6040517f70a0823100000000000000000000000000000000000000000000000000000000815273ffffffffffffffffffffffffffffffffffffffff888116600483015291925082918a16906370a0823190602401602060405180830381865afa158015611271573d6000803e3d6000fd5b505050506040513d601f19601f820116820180604052508101906112959190611bb2565b61129f9190611dc0565b935060009250600291506112b09050565b6040519080825280602002602001820160405280156112d9578160200160208202803683370190505b50905085816000815181106112f0576112f0611bcb565b602002602001019073ffffffffffffffffffffffffffffffffffffffff16908173ffffffffffffffffffffffffffffffffffffffff1681525050848160018151811061133e5761133e611bcb565b602002602001019073ffffffffffffffffffffffffffffffffffffffff16908173ffffffffffffffffffffffffffffffffffffffff16815250508760008151811061138b5761138b611bcb565b602002602001015173ffffffffffffffffffffffffffffffffffffffff1663d06ca61f83836040518363ffffffff1660e01b81526004016113cd929190611dd7565b600060405180830381865afa1580156113ea573d6000803e3d6000fd5b505050506040513d6000823e601f3d9081017fffffffffffffffffffffffffffffffffffffffffffffffffffffffffffffffe01682016040526114309190810190611e3b565b60018151811061144257611442611bcb565b6020026020010151925050506000808473ffffffffffffffffffffffffffffffffffffffff168673ffffffffffffffffffffffffffffffffffffffff161061148c57826000611490565b6000835b909250905073ffffffffffffffffffffffffffffffffffffffff841663022c0d9f83838b6114bf8c6003611d3a565b815181106114cf576114cf611bcb565b6020026020010151600067ffffffffffffffff8111156114f1576114f1611a8f565b6040519080825280601f01601f19166020018201604052801561151b576020820181803683370190505b506040518563ffffffff1660e01b815260040161153b9493929190611ee1565b600060405180830381600087803b15801561155557600080fd5b505af1158015611569573d6000803e3d6000fd5b505050505050505050506002816115809190611d3a565b90506110a5565b5050565b6040805160008082526020820190925273ffffffffffffffffffffffffffffffffffffffff84169083906040516115c29190611cd7565b60006040518083038185875af1925050503d80600081146115ff576040519150601f19603f3d011682016040523d82523d6000602084013e611604565b606091505b5050905080611695576040517f08c379a000000000000000000000000000000000000000000000000000000000815260206004820152603460248201527f5472616e7366657248656c7065723a3a736166655472616e736665724554483a60448201527f20455448207472616e73666572206661696c65640000000000000000000000006064820152608401610161565b505050565b60008060006117af84600001518560200151866040015187606001518860800151604080517f897e8e5f022b849935d76c2c78225ad4149b2b7530acf334a3f2dea62f753ee060208083019190915273ffffffffffffffffffffffffffffffffffffffff97881682840152959096166060870152608086019390935260a085019190915260c0808501919091528151808503909101815260e0840182528051908301207f19010000000000000000000000000000000000000000000000000000000000006101008501527f979307752a88d4f0ad6e454fdfd30ae51ff1e7f90ccd30e6e0a8ff8c295e6bfc61010285015261012280850191909152815180850390910181526101429093019052815191012090565b60a08086015160c087015160e088015160408051600081526020810180835287905260ff9094169084015260608301919091526080820152919250600191016020604051602081039080840390855afa158015611810573d6000803e3d6000fd5b50506040517fffffffffffffffffffffffffffffffffffffffffffffffffffffffffffffffe0015192505073ffffffffffffffffffffffffffffffffffffffff82166118b8576040517f08c379a000000000000000000000000000000000000000000000000000000000815260206004820152601960248201527f42726f6b65723a20494e56414c49445f5349474e4154555245000000000000006044820152606401610161565b60808401516040805160208082018590527fffffffffffffffffffffffffffffffffffffffff000000000000000000000000606087901b16828401526054808301949094528251808303909401845260749091019091528151910120925050915091565b6000806040838503121561192f57600080fd5b50508035926020909101359150565b6000610100828403121561195157600080fd5b50919050565b6000610100828403121561196a57600080fd5b611974838361193e565b9392505050565b803573ffffffffffffffffffffffffffffffffffffffff8116811461199f57600080fd5b919050565b600080600080600061016086880312156119bd57600080fd5b6119c7878761193e565b945061010086013567ffffffffffffffff808211156119e557600080fd5b818801915088601f8301126119f957600080fd5b813581811115611a0857600080fd5b8960208260051b8501011115611a1d57600080fd5b602083019650809550505050611a36610120870161197b565b94979396509194610140013592915050565b600060208284031215611a5a57600080fd5b6119748261197b565b803560ff8116811461199f57600080fd5b600060208284031215611a8657600080fd5b61197482611a63565b7f4e487b7100000000000000000000000000000000000000000000000000000000600052604160045260246000fd5b604051601f82017fffffffffffffffffffffffffffffffffffffffffffffffffffffffffffffffe016810167ffffffffffffffff81118282101715611b0557611b05611a8f565b604052919050565b6000610100808385031215611b2157600080fd5b6040519081019067ffffffffffffffff82118183101715611b4457611b44611a8f565b81604052611b518461197b565b8152611b5f6020850161197b565b6020820152604084013560408201526060840135606082015260808401356080820152611b8e60a08501611a63565b60a082015260c084013560c082015260e084013560e0820152809250505092915050565b600060208284031215611bc457600080fd5b5051919050565b7f4e487b7100000000000000000000000000000000000000000000000000000000600052603260045260246000fd5b600082357fffffffffffffffffffffffffffffffffffffffffffffffffffffffffffffffc1833603018112611c2e57600080fd5b9190910192915050565b60008083357fffffffffffffffffffffffffffffffffffffffffffffffffffffffffffffffe1843603018112611c6d57600080fd5b83018035915067ffffffffffffffff821115611c8857600080fd5b6020019150600581901b3603821315611ca057600080fd5b9250929050565b60005b83811015611cc2578181015183820152602001611caa565b83811115611cd1576000848401525b50505050565b60008251611c2e818460208701611ca7565b600060208284031215611cfb57600080fd5b8151801515811461197457600080fd5b7f4e487b7100000000000000000000000000000000000000000000000000000000600052601160045260246000fd5b60008219821115611d4d57611d4d611d0b565b500190565b80516dffffffffffffffffffffffffffff8116811461199f57600080fd5b600080600060608486031215611d8557600080fd5b611d8e84611d52565b9250611d9c60208501611d52565b9150604084015163ffffffff81168114611db557600080fd5b809150509250925092565b600082821015611dd257611dd2611d0b565b500390565b6000604082018483526020604081850152818551808452606086019150828701935060005b81811015611e2e57845173ffffffffffffffffffffffffffffffffffffffff1683529383019391830191600101611dfc565b5090979650505050505050565b60006020808385031215611e4e57600080fd5b825167ffffffffffffffff80821115611e6657600080fd5b818501915085601f830112611e7a57600080fd5b815181811115611e8c57611e8c611a8f565b8060051b9150611e9d848301611abe565b8181529183018401918481019088841115611eb757600080fd5b938501935b83851015611ed557845182529385019390850190611ebc565b98975050505050505050565b84815283602082015273ffffffffffffffffffffffffffffffffffffffff831660408201526080606082015260008251806080840152611f288160a0850160208701611ca7565b601f017fffffffffffffffffffffffffffffffffffffffffffffffffffffffffffffffe0169190910160a0019594505050505056fea26469706673582212203a2177f8754a74d17de753f019a88168df473acdb05ad5f417cf7e4d2989563b64736f6c634300080d0033",
  "immutableReferences": {},
  "source": "// SPDX-License-Identifier: MIT\n/** @title Broker */\n/** @author Zergity */\n\npragma solidity >=0.6.2;\npragma experimental ABIEncoderV2;\n\nimport '@uniswap/lib/contracts/libraries/TransferHelper.sol';\nimport \"./interfaces/IERC20.sol\";\nimport \"./interfaces/IWETH.sol\";\nimport './interfaces/IUniswapV2Pair.sol';\nimport './interfaces/IUniswapV2Router02.sol';\nimport './interfaces/IAggregator.sol';\n\ncontract Broker is IAggregator {\n    event Fill(bytes32 indexed slot, uint256 amountOut, uint256 deadline);\n    event GC(bytes32 indexed slot);\n\n    address private constant COIN = 0xEeeeeEeeeEeEeeEeEeEeeEEEeeeeEeeeeeeeEEeE;\n    address private constant WCOIN = 0xbb4CdB9CBd36B01bD1cBaEBF2De08d9173bc095c;\n\n    bytes32 private constant DOMAIN_SEPARATOR = 0x979307752a88d4f0ad6e454fdfd30ae51ff1e7f90ccd30e6e0a8ff8c295e6bfc;\n    address private constant AGGREGATOR = 0x9a7b42f2cC543ab1bcFEB2b9F8b9cB8CC0F38E5F;\n\n    mapping(bytes32 => uint) filled;\n\n    function cancel(\n        bytes32 digest,\n        uint    deadline\n    ) external {\n        require(block.timestamp <= deadline, \"Broker: EXPIRED\");\n        bytes32 slot = _toSlot(digest, msg.sender, deadline);\n        require(filled[slot] == 0, \"Broker: INVALIDATED\");\n        emit Fill(slot, 0, deadline);\n    }\n\n    struct ___ {\n        address maker;\n        uint amountOut;\n        uint spentAmount;\n        bytes32 slot;\n    }\n\n    function fill(\n        SignedOrder calldata    order,\n        Route[]     calldata    routes,\n        address                 referrer,\n        bytes32                 expiredSlot // optional expired slot to be garbage collected\n    ) external returns (uint profit) {\n    unchecked {\n        require(block.timestamp <= order.deadline, \"Broker: EXPIRED\");\n        ___ memory __;\n        (__.slot, __.maker) = _updateOrderSlot(order);\n\n        // (uint amountOut,) = IAggregator(AGGREGATOR).aggregate(order, routes, payable(address(this)), referrer);\n        __.amountOut = order.tokenOut == COIN ? 0 : IERC20(order.tokenOut).balanceOf(msg.sender);\n\n        for (uint i; i < routes.length; ++i) {\n            // direct transfer tokenIn from order maker\n            TransferHelper.safeTransferFrom(order.tokenIn, __.maker, routes[i].steps[0][2], routes[i].amount);\n            for (uint j; j < routes[i].steps.length; ++j) {\n                _swapSupportingFeeOnTransferTokens(routes[i].steps[j]);\n            }\n            __.spentAmount += routes[i].amount;\n        }\n        require(__.spentAmount == order.amountIn, \"Broker: spentAmount != amountIn\");\n\n        if (order.tokenOut == COIN) {\n            __.amountOut = IERC20(WCOIN).balanceOf(address(this));\n            require(__.amountOut >= order.amountOutMin, 'Broker: INSUFFICIENT_OUTPUT_AMOUNT');\n            IWETH(WCOIN).withdraw(__.amountOut);\n            TransferHelper.safeTransferETH(__.maker, order.amountOutMin);\n            profit = __.amountOut - order.amountOutMin;\n            if (profit > 0) {\n                TransferHelper.safeTransferETH(msg.sender, profit);\n            }\n        } else {\n            uint balance = IERC20(order.tokenOut).balanceOf(msg.sender);\n            require(balance >= __.amountOut, 'Broker: NEGATIVE_OUTPUT_AMOUNT');\n            __.amountOut = balance - __.amountOut;\n            require(__.amountOut >= order.amountOutMin, 'Broker: INSUFFICIENT_OUTPUT_AMOUNT');\n            TransferHelper.safeTransferFrom(order.tokenOut, msg.sender, __.maker, order.amountOutMin);\n            profit = __.amountOut - order.amountOutMin;\n        }\n\n        emit Swapped(\n            msg.sender,\n            order.tokenIn,\n            order.tokenOut,\n            __.maker,\n            order.amountIn,\n            __.spentAmount,\n            __.amountOut,\n            order.amountOutMin,\n            referrer\n        );\n\n        emit Fill(__.slot, __.amountOut, order.deadline);\n\n        if (expiredSlot != 0x0 &&\n            filled[expiredSlot] != 0 &&\n            filled[expiredSlot] < block.timestamp\n        ) {\n            delete filled[expiredSlot];\n            emit GC(expiredSlot);\n        }\n    } }\n\n    // **** SWAP (supporting fee-on-transfer tokens) ****\n    // requires the initial amount to have already been sent to the first pair\n    function _swapSupportingFeeOnTransferTokens(address[] memory path) internal {\n        for (uint i = 1; i+3 < path.length; i += 2) {\n            (address input, address output) = (path[i], path[i+2]);\n            IUniswapV2Pair pair = IUniswapV2Pair(path[i+1]);\n            uint amountOutput;\n            { // scope to avoid stack too deep errors\n                uint amountInput;\n                {\n                    (uint r0, uint r1,) = pair.getReserves();\n                    uint ri = input < output ? r0 : r1;\n                    amountInput = IERC20(input).balanceOf(address(pair)) - ri;\n                }\n                address[] memory tokens = new address[](2);\n                tokens[0] = input;\n                tokens[1] = output;\n                amountOutput = IUniswapV2Router02(path[0]).getAmountsOut(amountInput, tokens)[1];\n            }\n            (uint amount0Out, uint amount1Out) = input < output ? (uint(0), amountOutput) : (amountOutput, uint(0));\n            pair.swap(amount0Out, amount1Out, path[i+3], new bytes(0));\n        }\n    }\n\n    function _balance(address token, address adr) internal view returns (uint) {\n        return token == COIN ? adr.balance : IERC20(token).balanceOf(adr);\n    }\n\n    bytes32 public constant ORDER_TYPEHASH = keccak256(\"Order(address tokenIn,address tokenOut,uint256 amountIn,uint256 amountOut,uint256 deadline)\");\n\n    function _toSlot(bytes32 digest, address maker, uint deadline) internal pure returns (bytes32) {\n        return keccak256(abi.encodePacked(digest, maker, deadline));\n    }\n\n    function _toDigest(\n        address tokenIn,\n        address tokenOut,\n        uint    amountIn,\n        uint    amountOutMin,\n        uint    deadline\n    ) internal pure returns (bytes32 digest) {\n        return keccak256(abi.encodePacked(\n            '\\x19\\x01',\n            DOMAIN_SEPARATOR,\n            keccak256(abi.encode(ORDER_TYPEHASH, tokenIn, tokenOut, amountIn, amountOutMin, deadline))\n        ));\n    }\n\n    function _recover(\n        SignedOrder memory order\n    ) internal pure returns (bytes32 slot, address maker) {\n        bytes32 digest = _toDigest(order.tokenIn, order.tokenOut, order.amountIn, order.amountOutMin, order.deadline);\n        maker = ecrecover(digest, order.v, order.r, order.s);\n        require(maker != address(0), 'Broker: INVALID_SIGNATURE');\n        slot = _toSlot(digest, maker, order.deadline);\n    }\n\n    function _updateOrderSlot(SignedOrder memory order) internal returns (bytes32 slot, address maker) {\n        (slot, maker) = _recover(order);\n        require(filled[slot] == 0, \"Broker: INVALIDATED\");\n        filled[slot] = order.deadline;\n    }\n\n    function parseOrder(SignedOrder calldata order) external view returns (\n        bytes32 digest,\n        address maker,\n        bytes32 slot,\n        uint    status\n    ) {\n        digest = _toDigest(order.tokenIn, order.tokenOut, order.amountIn, order.amountOutMin, order.deadline);\n        if (order.v != 0 && order.r != 0 && order.s != 0) {\n            maker = ecrecover(digest, order.v, order.r, order.s);\n            slot = _toSlot(digest, maker, order.deadline);\n            status = filled[slot];\n        }\n    }\n}",
  "sourcePath": "/home/zergity/src/github.com/ezDeFi/aggregator-contracts/contracts/Broker.sol",
  "compiler": {
    "name": "solc",
    "version": "0.8.13+commit.abaa5c0e.Emscripten.clang"
  },
  "schemaVersion": "3.4.6",
  "updatedAt": "2022-04-09T07:13:08.945Z",
  "devdoc": {
    "kind": "dev",
    "methods": {},
    "version": 1
  },
  "userdoc": {
    "kind": "user",
    "methods": {},
    "version": 1
  }
}